:100000000C942A000C94E4000C9447000C944700D4
:100010000C9447000C9447000C9447000C94470044
:100020000C9447000C9447000C9447000C94470034
:100030000C9447000C9447000C9447000C94470024
:100040000C9447000C9447000C9447000C94470014
:100050000C94470011241FBECFE5D8E0DEBFCDBF12
:1000600010E0A0E6B0E0E2E2F8E002C005900D92F8
:10007000AA3BB107D9F720E0AAEBB0E001C01D927E
:10008000AD3BB207E1F70E949B030C940F040C9464
:1000900000008FB78F778FBF8FB780688FBF81B316
:1000A0008B7F81BB82B3846082BB8BB780648BBF44
:1000B00085B7826085BF85B7816085BF08958091CF
:1000C000BA00813009F07FC00E94770184E690E099
:1000D0000E94960180EC90E00E940B0183E790E083
:1000E0000E9496010E94D10120E066C085B3846021
:1000F00085BB9BB388E098279BBB3FED43E954E069
:10010000315040405040E1F700C0000095B39B7F64
:1001100095BB9BB398279BBB35B391E0392735BB83
:100120003FED43E954E0315040405040E1F700C01A
:10013000000035B3306835BB3BB338273BBB3FEDE0
:1001400043E954E0315040405040E1F700C0000026
:1001500035B33F7735BB3BB338273BBB35B3392786
:1001600035BB3FED43E954E0315040405040E1F7AA
:1001700000C0000032B3386032BB3BB338273BBB12
:100180003FED43E954E0315040405040E1F700C0BA
:10019000000032B3377F32BB3BB383278BBB85B3C1
:1001A000982795BB8FED93E934E081509040304023
:1001B000E1F700C000002F5F223008F497CF0E94C3
:1001C000AC011092BA0008951F920F920FB60F92D1
:1001D00011242F933F934F935F936F937F938F934C
:1001E0009F93AF93BF93EF93FF9381E08093BA0007
:1001F0000E945F00FF91EF91BF91AF919F918F910E
:100200007F916F915F914F913F912F910F900FBE12
:100210000F901F9018959BB39F70282F207F922BD3
:100220009BBB98B39B7F98BB98B39D7F98BB98B3BB
:10023000986098BB35E03A95F1F7000098B3977F46
:1002400098BBEFE1F3E03197F1F700C000002BB36A
:10025000F0E18F9FC0011124922F9F70892B8BBBDF
:1002600088B3886088BB35E03A95F1F7000088B321
:10027000877F88BB8FE39CE90197F1F700C00000FE
:1002800008959BB39F70282F207F922B9BBB98B320
:100290009B7F98BB98B3926098BB98B3986098BBCB
:1002A00035E03A95F1F7000098B3977F98BBEFE1FE
:1002B000F3E03197F1F700C000002BB3F0E18F9F1E
:1002C000C0011124922F9F70892B8BBB88B388604B
:1002D00088BB35E03A95F1F7000088B3877F88BB8B
:1002E0008FE39CE90197F1F700C0000008958AB3FD
:1002F000806F8ABB87B38E6087BB82E00E940B0150
:1003000088E20E940B018CE00E940B0186E00E94B3
:100310000B0181E00E940B012FEF89EF90E021504B
:1003200080409040E1F700C0000008950F931F93B4
:10033000CF93DF938C01C0E0D0E003C00E94410165
:100340002196F801EC0FFD1F80818111F7CFDF911D
:10035000CF911F910F91089581E00E940B0180E8D9
:100360000E940B010895CF93DF93CDB7DEB760975E
:100370000FB6F894DEBF0FBECDBF4AE0BE016F5F7F
:100380007F4F90E00E94DA03CE0101960E94960111
:1003900060960FB6F894DEBF0FBECDBFDF91CF9150
:1003A00008952FE784E89EE1215080409040E1F7D6
:1003B00000C000008091BB009091BC000396909318
:1003C000BC008093BB00CB9770F01092BC001092E1
:1003D000BB00809160009091610001969093610054
:1003E0008093600008958091600090916100CB97A8
:1003F00068F010926100109260008091620090910C
:1004000063000196909363008093620008950E94B8
:10041000770182E890E00E94960180EC0E940B0137
:100420000E94D10180916200909163008A30910511
:1004300078F520916000309161002A30310540F557
:100440002091BB003091BC002A30310508F583E9CA
:1004500090E00E949601809162000E94B30185E9BC
:1004600090E00E94960183E990E00E9496018091BD
:1004700060000E94B30185E990E00E94960183E943
:1004800090E00E9496018091BB000E94B30114C1CC
:100490008A30910548F120916000309161002A3046
:1004A000310510F52091BB003091BC002A30310598
:1004B000D8F40E94B30185E990E00E94960183E997
:1004C00090E00E949601809160000E94B30185E94E
:1004D00090E00E94960183E990E00E94960180914D
:1004E000BB000E94B301E8C08A30910558F5209105
:1004F0006000309161002A30310520F12091BB006D
:100500003091BC002A303105E8F483E990E00E9484
:100510009601809162000E94B30185E990E00E94FB
:100520009601809160000E94B30185E990E00E94ED
:10053000960183E990E00E9496018091BB000E94A1
:10054000B301BAC08A30910558F52091600030910E
:1005500061002A30310520F52091BB003091BC00AC
:100560002A303105E8F083E990E00E9496018091FD
:1005700062000E94B30185E990E00E94960183E940
:1005800090E00E949601809160000E94B30185E98D
:1005900090E00E9496018091BB000E94B3018CC044
:1005A0008A30910538F520916000309161002A3041
:1005B000310500F12091BB003091BC002A3031059B
:1005C000C8F083E990E00E949601809162000E9449
:1005D000B30185E990E00E949601809160000E943D
:1005E000B30185E990E00E9496018091BB000E94D2
:1005F000B30162C08A30910528F1209160003091EA
:1006000061002A303105F0F42091BB003091BC002C
:100610002A303105B8F00E94B30185E990E00E94CC
:10062000960183E990E00E949601809160000E940B
:10063000B30185E990E00E9496018091BB000E9481
:10064000B3013AC08A30910528F1209160003091C1
:1006500061002A303105F0F02091BB003091BC00E0
:100660002A303105B8F40E94B30185E990E00E9478
:100670009601809160000E94B30185E990E00E949C
:10068000960183E990E00E9496018091BB000E9450
:10069000B30112C00E94B30185E990E00E94960167
:1006A000809160000E94B30185E990E00E9496016C
:1006B0008091BB000E94B3012FEB86EC9DE221509C
:1006C00080409040E1F700C000000E94AC01089516
:1006D00016C00E940702B09B09C0809160009091F3
:1006E0006100059690936100809360002FE78AE196
:1006F00096E0215080409040E1F700C00000B099A2
:10070000E8CF08950E94770187E990E00E94960162
:1007100080EC0E940B0188EA90E00E9496012FEB8A
:1007200086EC9DE2215080409040E1F700C000003F
:100730000E94AC0108950E94490081B38B7F81BB68
:1007400087B38D7F87BB87B38E7F87BB84B3806879
:1007500084BB84B3846084BB81B3886081BB84B371
:10076000816084BB8AB388608ABB85B38F7785BB81
:1007700085B38B7F85BB82B3877F82BB8BB3877F3B
:100780008BBB85B38E7F85BB85B38F7785BB85B3E8
:100790008B7F85BB82B38B7F82BB8BB3877F8BBB09
:1007A00085B38E7F85BB0E9482030E9407020E9450
:1007B0006803EACFBB274A3031F4992322F4BDE223
:1007C000909581959F4F0C94E603BB27FB0155271D
:1007D000AA27880F991FAA1FA41710F0A41B83959E
:1007E0005051B9F7A05DAA3308F0A95DA193009715
:1007F00079F7B111B1931192CB010C94FF03DC0195
:10080000FC01672F71917723E1F7329704C07C9147
:100810006D9370836291AE17BF07C8F30895F89483
:02082000FFCF08
:10082200080002004120706572736F6E20456E747D
:10083200657200796F7572204F6666696365202163
:1008420021004469676974616C436C6F636B323475
:1008520068720030003A002020456E672F4B6972A3
:100862006F6C6C6F732020004D65636861456E6725
:0A087200696E656572696E6700002B
:00000001FF
