:100000000C942A000C9447000C9447000C94470071
:100010000C9447000C9447000C9447000C94470044
:100020000C9447000C9447000C9447000C94470034
:100030000C9447000C9447000C9447000C94470024
:100040000C9447000C9447000C9447000C94470014
:100050000C94470011241FBECFE5D8E0DEBFCDBF12
:1000600010E0A0E6B0E0E4E0F4E002C005900D92FC
:10007000AA39B107D9F720E0AAE9B0E001C01D9282
:10008000AB39B207E1F70E940C010C9400020C940A
:1000900000009BB39F70282F207F922B9BBBC298A0
:1000A000C198C39A35E03A95F1F70000C398EFE1A3
:1000B000F3E03197F1F700C000002BB32F70F0E1AF
:1000C0008F9FC0011124822B8BBBC39A35E03A95D8
:1000D000F1F70000C3988FE39CE90197F1F700C0A6
:1000E000000008959BB39F70282F207F922B9BBB0D
:1000F000C298C19AC39A35E03A95F1F70000C398C7
:10010000EFE1F3E03197F1F700C000002BB32F705F
:10011000F0E18F9FC0011124822B8BBBC39A35E085
:100120003A95F1F70000C3988FE39CE90197F1F746
:1001300000C0000008958AB3806F8ABB87B38E60C9
:1001400087BB82E00E94490088E20E9449008CE05F
:100150000E94490086E00E94490081E00E94490017
:100160002FEF89EF90E0215080409040E1F700C0F0
:1001700000000895CF93DF93EC018991882319F053
:100180000E947200FACFDF91CF91089581E00E9422
:10019000490080E80C944900CF93DF93CDB7DEB7D8
:1001A00060970FB6F894DEBF0FBECDBF4AE0BE0128
:1001B0006F5F7F4F90E00E94CB01CE0101960E94BD
:1001C000BA0060960FB6F894DEBF0FBECDBFDF91C8
:1001D000CF9108952FE78FE492E121508040904025
:1001E000E1F700C0000090919A009D5F90939A0003
:1001F000809161009B3330F010929A008F5F809362
:10020000610008958B3338F0109261008091600096
:100210008F5F8093600008958A98A79AA29A8B9A1C
:10022000A09AD39AAF98AA989398DB98A898C8E018
:10023000D1E0829B58C0AA9A8BB38C278BBB2FED41
:1002400083E994E0215080409040E1F700C0000035
:10025000AA988BB38C278BBB85B38D2785BB2FEDDD
:1002600083E994E0215080409040E1F700C0000015
:10027000AF9A8BB38C278BBB2FED83E994E0215091
:1002800080409040E1F700C00000AF988BB38C270E
:100290008BBB85B38D2785BB2FED83E994E021507F
:1002A00080409040E1F700C00000939A8BB38C2708
:1002B0008BBB2FED83E994E0215080409040E1F723
:1002C00000C0000093988BB38C278BBB85B38D2720
:1002D00085BB2FED83E994E0215080409040E1F709
:1002E00000C00000A6CFAF98AA989298DB98A89873
:1002F0000E949B0082E690E00E94BA0080EC0E947F
:10030000490083E790E00E94BA002FEB86EC9DE263
:10031000215080409040E1F700C000000E94C600DC
:100320000E949B0084E890E00E94BA0080EC0E944A
:1003300049000E94EA00809160008A3020F485E93B
:1003400090E00E94BA00809160000E94CC0087E992
:1003500090E00E94BA0085E990E00E94BA00809186
:1003600061000E94CC0087E990E00E94BA0085E914
:1003700090E00E94BA0080919A000E94CC002FEB7E
:1003800086EC9DE2215080409040E1F700C00000E3
:100390000E94C6004ECFBB274A3031F4992322F485
:1003A000BDE2909581959F4F0C94D701BB27FB012F
:1003B0005527AA27880F991FAA1FA41710F0A41B5E
:1003C00083955051B9F7A05DAA3308F0A95DA193B8
:1003D000009779F7B111B1931192CB010C94F00110
:1003E000DC01FC01672F71917723E1F7329704C09C
:1003F0007C916D9370836291AE17BF07C8F3089527
:04040000F894FFCF9E
:1004040009082020456E672F4B69726F6C6C6F73FF
:100414002020004D65636861456E67696E6565728D
:10042400696E67004469676974616C436C6F636BE0
:0A043400323468720030003A000014
:00000001FF
